:400000000080002011000000690100006901000008B5044B1A6803F53F5302331A6000F0ABF800BFFA46004010B5054C237833B9044B13B10448AFF300800123237010BD00
:400040008081FF1F00000000CC0E0000084B10B51BB108480849AFF300800848036803B910BD074B002BFBD0BDE81040184700BF00000000CC0E00008481FF1F0881FF1F9D
:40008000000000000122014B1A707047A481FF1F08B500F081FB044B186000F095FA0122024B1A7008BD00BFA881FF1FA481FF1F08B5002000F0EEFD08BD00BF38B5002489
:4000C000244B1C70244800F069FC244800F06EFE234800F093FE62B600F038FC00F0CCFA00F02CFB00F0B4FB00F082FD00F052FA00F034FE2046214600F088FD194800F088
:4001000015FD0024134B1C7000F0B6FA4FF0807000F04AFB012000F0BDFD0EE0013400F04BFB054600200B2100F070FDE8B200F08BFD41F270739C4203D0064B1B78002B9B
:40014000ECD00020C4B20B2100F060FD204600F07BFDD6E7A481FF1F91000000B100000085000000D00E000008B500F06FFE03680C2B00D1FEE7FEE708B5104E104D16E07C
:4001800029686B68AC68002204E051F8040B43F8040B0432A242F8D1E868002203E0002143F8041B04328242F9D11035013E002EE6D100F051FEFFF781FFFEE701000000A4
:4001C000A80F000008B5124A124B1A60124A136843F40073136000230AE0032B03D80F4A52F8231000E00E490E4A42F8231001332F2BF2D90C4B1A780C4B1A70094A0C4BAF
:400200001A6000F0CBF800220A4B1A6008BD00BF0004FA050CED00E014ED00E000000000690100000080FF1FBC7600400481FF1F08ED00E00081FF1FFEE700BFF0B4002264
:40024000174611E050F82760F3B226F0FF0608E001EB420511F812406D78A5550132013BDBB2002BF4D10137112FEBD9F0BC7047124B1B78DBB203F00701114A11701B0949
:40028000013213700123A2F2227213700C2102F21F721170102102F5CA72117006321370202208490A7078310B7040310A70064A13704422054B1A70704700BFCF01004928
:4002C0006E580040085A0040C45A00407658004008B50A46002100F0F0FD08BD38B50122244B1A80182202331A70022203F27E231A7008224FF040231A70032103F50073DF
:4003000019701D4B1B78DBB21C490B701C4B1A8041F25122023B1A80002419250CE0194B1B7803F0010343EA440404F003044FF4F07000F071FD013D0DB1032CEFD115B9E8
:400340000320FFF779FF104B4FF480721A8007221A7000220D490A704820023108701A700222033B1A700A4A137843F00103137038BD00BF8040004008010049A1460040CE
:4003800022420040254200400440004006400040A243004008B500F085FD08BD70B572B62D4A137843F00403137000240CE02B4963001A1952000A4423445B00C85891880E
:4003C000FFF786FF0134E4B2092CF0D94FF090402349FFF733FF0322224B1A8002F1804202F5A832137843F0020313701032137843F0020313701C4C237843F0400323708A
:40040000A2F58632513A137843F010031370174817490822FFF7BEFF164817490822FFF7B9FF164816490822FFF7B4FF154A137843F008031370144E01253570FFF74EFFB1
:4004400081233370114B1D70FFF712FF104821460E22FFF79FFF70BDE8460040DC0E00004800004848580040A043004012510040B403004822510040BC030048425100407B
:40048000C4030048224300400048004004000840B043004010B5044605E0084B186800F0BBFCA4F50044B4F5004FF6D8034B586800FB04F000F0B0FC10BD00BF0C81FF1FA0
:4004C00008B5034B1B7A03FB00F000F0A5FC08BD0C81FF1F014B1880704700BF08680040014B1880704700BF88680040014B1880704700BF48680040014B1880704700BF35
:4005000068680040014B1870704700BF85640040014B1878704700BF65640040014B188880B27047A868004008B501E0FFF7F6FFFFF7EEFF10F0100FF8D108BD10B5134A7D
:40054000137843F001031370114C237843F00103237040F22B10FFF7BDFF40F22B10FFF7BFFF9620FFF7C2FF9620FFF7C5FF0020FFF7C8FF00F058FC237843F010032370C2
:4005800000F056FCFFF7D0FF10BD00BF946400409564004008B5044B1B7823B9FFF7CEFF0122014B1A7008BD9C81FF1F054A137843F0010313701032137843F001031370E5
:4005C000704700BFA7430040054A137803F0FE0313701032137803F0FE031370704700BFA74300400F490B7803F0FC0200F0030313430B7001280AD10B4B1B78DBB20B4AC4
:4006000013700B4B1B78DBB2013213707047094B1B78DBB2054A1370074B1B78DBB201321370704740580040100100493046004014010049AD010049B501004908B5022014
:40064000FFF7D0FF0B4B1A7802F0DF021A701A7802F0FB021A701A7842F008021A7003F287231A7802F0E7021A701A7842F010021A7008BD4058004008B5054B1B7823B9FE
:40068000FFF7DCFF0122024B1A70FFF78FFF08BD9D81FF1F054A137843F0010313701032137843F001031370704700BFA8430040054B1A7802F0FD021A701A7800F002004D
:4006C00010431870704700BF20580040014B1870704700BF805B0040064B1B78C3F3810303F19243063393F82031DBB2024A1370704700BF205800400846004008B5064B6A
:400700001A7802F0F3021A701A7800F00C0010431870FFF7E1FF08BD2058004010B50024054B1C7001331C700420FFF7E7FF2046FFF7BEFF10BD00BF2058004008B5074B09
:400740001B7823B9FFF7EAFF0122044B1A70FFF7A1FFBB20FFF7BAFF08BD00BF9E81FF1F024A137843F080031370704771640040014B1870704700BF81640040014B187827
:40078000704700BF6164004008B50146014800F053FB08BD20640040024B186820F07F40704700BF4064004008B50146014800F043FB08BD00640040034B1B78034B186821
:4007C00020F07F40704700BF0064004040640040024A137843F01003137070477164004000F00300044B1A7802F0FC021A701A7810431870704700BF7164004008B501E0DC
:40080000FFF7CAFFFFF7BAFF10F0080FF8D108BD08B56FF07F40FFF7B7FF6FF07F40FFF7C3FF00F001FB094A137843F01003137000F0FEFAFFF7CCFF0020FFF7D1FFFFF730
:40084000DDFF0220FFF794FF08BD00BF9164004008B5054B1B7823B9FFF7DAFF0122024B1A70FFF77DFF08BD9F81FF1F084A137843F0010313701032137843F00103137060
:4008800002F5A5521E32137843F0800313707047A9430040044A137803F0FC0300F0030018431070704700BF0158004010B487B00446194B03AA1868596803C2197A11703B
:4008C0006A4653F80C0F596803C21B7A1370082C1ED812490B7803F08003DBB20B70087806AB1C4414F80C3C14F8182C920002F00C02134303430B70094A137803F0F30319
:400900001370117814F8183C0B4343F00C03137007B05DF8044B7047180F0000025800400158004008B50C22064B1A70064A1378DBB213700220FFF7B9FF0120FFF7AAFF8B
:4009400008BD00BF005800400158004008B5054B1B7823B90122034B1A70FFF7E3FFFFF785FF08BDA081FF1F014B1B685864704708ED00E04001C0B2014B1870704700BFE1
:4009800001E400E00222014B1A60704700E100E00222014B1A60704780E100E010B50446FFF7F6FF2046FFF7DFFF0720FFF7E2FFFFF7E8FF10BD00BF10B50B4C237803F0E9
:4009C0009F032370237803F0F00323702378184340F0100020700120FFF772FD237803F0EF03237010BD00BF2051004038B505460E4C237843F020032370237803F0BF03AC
:400A000023700020FFF75CFD237803F0F003237023781D4345F0100525700120FFF750FD237803F0EF03237038BD00BF2051004070B5354B1A7802F08002D2B21A703349B5
:400A40000A7802F0F00242F00F020A7001310A7802F0F0020A7001310A7802F0F0020A701A7802F0DF021A701A7842F040021A704FF4CA760020FFF723FD234D2B7843F0B1
:400A800010032B700120FFF71BFD214B1C78E4B22B7803F0EF032B700020FFF711FD04F00804E4B22B7843F010032B700120FFF707FD2B7803F0EF032B7014B90A20FFF737
:400AC000FFFC013E0CB1002ED4D10F4A137803F0BF031370137803F08003DBB213700232137803F0F00313700132137803F0F00343F00F0313700132137803F0F00343F094
:400B00000F03137070BD00BF20510040225100402151004010B50446FFF78AFF2009FFF765FF04F00F00FFF761FF10BD38B505460078012404E0FFF7EDFF285D0134E4B2FC
:400B40000028F8D138BD00BF08B5FFF7E3FF08BD10B50446FFF76CFF2009FFF72DFF04F00F00FFF729FF10BD08B52820FFF792FC0320FFF721FF0520FFF78CFC0320FFF74F
:400B80001BFF0F20FFF786FC0320FFF715FF0120FFF780FC0220FFF70FFF0520FFF77AFC0620FFF7D5FF0E20FFF7D2FF2C20FFF7CFFF0820FFF7CCFF0120FFF7C9FF0C2014
:400BC000FFF7C6FF0320FFF7C3FF0520FFF762FC014800F049F808BD400F000008B50C20FFF7B6FF0122014B1A7008BDA181FF1F08B5054B5B7823B9FFF7B6FF0122024BEF
:400C00005A70FFF7EBFF08BDA181FF1F08B5032819D8DFE800F002070D1381F08000FFF797FF08BDA1F14000C0B2FFF791FF08BDA1F16C00C0B2FFF78BFF08BDA1F12C0008
:400C4000C0B2FFF785FF08BD38B504460309054DE85CFFF779FF04F00F04285DFFF774FF38BD00BF300F000038B50546FFF7E0FE4020FFF76DFF002404E0285DFFF74AFFFA
:400C80000134E4B23F2CF8D9FFF7D2FE8020FFF75FFF38BD014B1870704700BF72640040024A137843F080031370704774640040014B1870704700BF83640040014B1878F2
:400CC000704700BF63640040014B1870704700BF03640040014B1878704700BF43640040014B1870704700BF23640040014B1870704700BF3364004008B501E0FFF7EAFF9E
:400D0000FFF7DCFF10F0400FF8D108BD08B5114B1A7802F0F8021A701A7802F0FC021A70FFF7EAFF0A20FFF7DBFF0A20FFF7CCFF0020FFF7BDFFFFF7C1FF0020FFF7D6FFA1
:400D400000F072F8044A137843F01003137000F06FF808BD746400409364004008B5054B1B7823B9FFF7D2FF0122024B1A70FFF797FF08BDA381FF1F014B1B68186470473A
:400D800008ED00E04001C0B2014B1870704700BF00E400E00122014B1A60704700E100E00122014B1A60704780E100E010B50446FFF7F6FF2046FFF7DFFF0720FFF7E2FF29
:400DC000FFF7E8FF10BD00BF014B1B689864704708ED00E04001C0B2014B1870704700BF02E400E00422014B1A60704700E100E00422014B1A60704780E100E010B5044619
:400E0000FFF7F6FF2046FFF7DFFF0720FFF7E2FFFFF7E8FF10BD00BF0230800803D000BF01380046FCD17047EFF3108072B6704780F31088704700BFCBB20370C1F3072337
:400E40004370C1F307418170704700BF014B1868704700BF7C81FF1F0E4B70B51E460E4C0025E41AA410A54204D056F8253098470135F8E700F086F8084B094C1E46E41A22
:400E8000A4100025A54204D056F8253098470135F8E770BD900F0000900F0000900F0000980F000010B5431E0A44914204D011F8014B03F8014FF8E710BD0346024493428B
:400EC00002D003F8011BFAE7704700000000000044495354414E4345203A0000005100401000305100401000505100402000C05100401000F0510040100000000140001016
:400F000000140140000800400140000A004C01400002005001402000112131415171536373000000080901010502070404000000303132333435363738394142434445462F
:400F4000000E0808080E0000000A0A0404040000000E0A0E08080000000E0A0C0A0A0000000E080C080E0000000E080E020E0000000E080E020E00000004040400040000FF
:400F800043000000F8B500BFF8BC08BC9E4670474D000000C5010000F8B500BFF8BC08BC9E46704729000000B80F00000881FF1F7800000030000000000000000000E02E90
:400FC000C05D00001800000000366E010000000000000000000000000000000000000000000000000000000000000000800F00000000000000000000000000000000000088
:4010000000000000000000000000000000000000000000000000000000000000000000000000000000000000000000001C81FF1F00000000000000000000000000000000F5
:401040000000000000000000000000000000000000000000000000000000000000000000000000000000000000000000000000000000000000000000000000000000000070
:401080000000000000000000000000000000000000000000000000000000000000000000000000000000000000000000000000000000000000000000000000000000000030
:4010C00000000000000000000000000000000000000000000000000000000000000000000000000000000000000000000000000000000000000000000000000000000000F0
:4011000000000000000000000000000000000000000000000000000000000000000000000000000000000000000000000000000000000000000000000000000000000000AF
:020000040003F7
:0200000480007A
:4000000002520040036400405300014031010140560201403D0301404F0401402F05014001070140010D01400C40014002410140014201400243014002440140014501409A
:4000400005500140015101402006210C810F836B850F08030A0C0C050E0A1A0F28032A0C2C052E0A340F4043420249FF4AFF4BFF4F01501858045A045C095D095F01604093
:40008000624064406540668068806A806C806E80821F8C048D038E029301950196119A089B019C029E049F03A21FA301A610B001B101B203B302B40CB501B610BE41BF108F
:4000C000C043C202C9FFCAFFCBFFCD83CE03CF01D018D293D403D604D804D904DA04DB04DC99DD99DF01E040E240E440E540E680E880EA80EC80EE800080030806010780F8
:40010000088009A00E2A100811801620170119201C401D821E2824042520262A27082D023580361837013E4040444220452246205C805D205F0567406C086DC075027781EA
:4001400087408A048E01C093C2E2C433CA80CCF0CE10D0E7D6F0D880E6600E0136014046420345EC4620480B49FF4AFF4BFF4D834E034F01501858045A045B045C095D091B
:400180005F016040624064406540668068806A806C806E8082038A488D038E709103940495019702980199049C289F08A204A678A901AA18AB02B001B107B278B308B40200
:4001C000B604BA08BB03BE41C021C540C6C2C70EC81EC9FFCAFFCBFFCDA0CF01D018D40BD804D904DA04DB04DC99DD99DF01E040E280E440E540E680E840EA50EBA8EC40AB
:40020000ED20EE50EFA8008002400308060109400A040B101088122019821A041B081E021F402080220123102B08308832213940400441404502470848804F2551485250F2
:400240005620571059825A10610862106E409140964497059B089E21A008A142A220A440A601A708A980B602C08BC207C40ECA04CC0FCE08D0CCD220D60DD806EA04EE1022
:4002800003010D0113011E011F0421042E012F0231043302350136013F104010410649FF4AFF4BFF4DA04F0450185280580459045A045B045D905F01604062C06440654071
:4002C00066C068C06AC06CC06EC0810184018A028C019E02A204A404AF02B004B201B301B402B702BE10C010C102C5D0C601C752C836C9FFCAFFCBFFCDAFCE0FCF04D018A0
:40030000D407D804D904DA04DB04DF01E040E2C0E440E540E6C0E8C0EAC0ECC0EEC0060A071009800D801180150816801B801EA820042106258027102A822E40318238021F
:400340003B803E0241804580460848044D0154045540568A5D015EA86102620170019240938094049E01A940AA10C0E0C281C431CA19CC09CE89D038D204D6F0AF80EA0445
:4003800030283640530257205E80864088208F02CC70D4C0D620E640A720B408A720AF20EE102980CA08A9800001010109010A010B01003F000B0B0000000000007F7F00A8
:4003C00000000000000E0E000E00010000000000000000000000000000000000000000000000000000000000000000000000000000000000000000000000000000000000D2
:4004000000000000000000000000000000000000000000000000000000000000000000000000000000000000000000000000000000000000000000000000000000000000BC
:40044000000000000000000000000000000000000000000000000000000000000000000000000000000000000000000000000000000000000000000000000000000000007C
:40048000000000000000000000000000000000000000000000000000000000000000000000000000000000000000000000000000000000000000000000000000000000003C
:4004C00000000000000000000000000000000000000000000000000000000000000000000000000000000000000000000000000000000000000000000000000000000000FC
:0200000490006A
:0400000000004005B7
:0200000490105A
:04000000BC90ACAF55
:0200000490303A
:020000003510B9
:0200000490402A
:4000000000000000000000000000000000000000000000000000000000000000000000000000000000000000000000000000000000000000000000000000000000000000C0
:400040000000000000000000000000000000000000000000000000000000000000000000000000000000000000000000000000000000000000000000000000000000000080
:400080000000000000000000000000000000000000000000000000000000000000000000000000000000000000000000000000000000000000000000000000000000000040
:4000C0000000000000000000000000000000000000000000000000000000000000000000000000000000000000000000000000000000000000000000000000000000000000
:0200000490501A
:0C00000000012E12306900012E196579F4
:00000001FF