:400000000080002011000000110100001101000008B5044B1A6803F53F5302331A6000F07FF800BFFA46004010B5054C237833B9044B13B10448AFF300800123237010BDDC
:400040008081FF1F00000000880A0000084B10B51BB108480849AFF300800848036803B910BD074B002BFBD0BDE81040184700BF00000000880A00008481FF1F0881FF1F2D
:4000800000000000704700BF704700BF08B500F0C7F9044B186000F0B5F9012000F0D2FA08BD00BFA081FF1F08B50024134B1C60134800F08FFA134800F00CFB124800F0B7
:4000C000E1FA62B600F05EFA00F0E0F900F02CFC2046214600F036FC0C4800F0C3FB204600F0B0FA0020014600F02CFC034B186800F056FC002000F0A5FAF3E7A081FF1F9C
:400100008D00000089000000850000008C0A000008B500F079FC03680C2B00D1FEE7FEE708B5104E104D16E029686B68AC68002204E051F8040B43F8040B0432A242F8D1BE
:40014000E868002203E0002143F8041B04328242F9D11035013E002EE6D100F05BFCFFF7A3FFFEE7010000003C0B000008B5124A124B1A60124A136843F40073136000236F
:400180000AE0032B03D80F4A52F8231000E00E490E4A42F8231001332F2BF2D90C4B1A780C4B1A70094A0C4B1A6000F0AFF800220A4B1A6008BD00BF0004FA050CED00E04B
:4001C00014ED00E000000000110100000080FF1FBC7600400481FF1F08ED00E00081FF1FFEE700BFF0B40022174611E050F82760F3B226F0FF0608E001EB420511F8124028
:400200006D78A5550132013BDBB2002BF4D10137132FEBD9F0BC7047064B1B78DBB203F00701054A11701B09013213704422034B1A707047CF0100496E580040765800401A
:4002400008B50A46002100F016FC08BD38B50122244B1A80182202331A70022203F27E231A7008224FF040231A70032103F5007319701D4B1B78DBB21C490B701C4B1A805C
:4002800041F25122023B1A80002419250CE0194B1B7803F0010343EA440404F003044FF4F07000F0A1FB013D0DB1032CEFD115B90320FFF795FF104B4FF480721A8007222D
:4002C0001A7000220D490A704820023108701A700222033B1A700A4A137843F00103137038BD00BF8040004008010049A146004022420040254200400440004006400040DE
:40030000A243004008B500F0ABFB08BD70B572B62A4A137843F00403137000240CE0284963001A1952000A4423445B00C8589188FFF786FF0134E4B2072CF0D94FF0904074
:400340002049FFF74FFF204A137843F0020313701032137843F0020313701C4C237843F040032370A2F58632513A137843F010031370174817490822FFF7C4FF16481749FE
:400380000822FFF7BFFF164816490822FFF7BAFF154A137843F008031370144E01253570FFF754FF81233370114B1D70FFF734FF104821460E22FFF7A5FF70BDE84600402B
:4003C000940A00005000004803500140A0430040C2510040F402004812510040FC0200482251004004030048224300400048004004000840B0430040014B1870704700BF9E
:4004000084650040014B1878704700BF6465004008B50146014800F00BF908BD24650040024B186820F07F40704700BF4465004008B50146014800F0FBF808BD04650040D0
:4004400008B501E0FFF7ECFFFFF7DCFF10F0080FF8D108BD10B50B4C2046FFF7D9FF2046FFF7E6FF00F0C8FA074A137843F01003137000F0C5FAFFF7E3FF0220FFF7BCFF45
:4004800010BD00BF530902009465004008B5044B1B7823B9FFF7DEFF0122014B1A7008BD9C81FF1F024A137843F080031370704777650040014B1880704700BF0C680040E1
:4004C000014B1880704700BF8C680040014B1880704700BF4C680040014B1880704700BF6C680040014B1870704700BF87640040014B1878704700BF67640040014B1888F4
:4005000080B27047AC68004008B501E0FFF7F6FFFFF7EEFF10F0100FF8D108BD10B5174A137803F0C00343F009031370E13A137843F001031370124C237843F00103237019
:400540004FF6FF70FFF7B6FF4FF6FF70FFF7B8FF4CF25030FFF7BAFF42F21070FFF7BCFF0020FFF7BFFF00F047FA237843F01003237000F045FAFFF7C7FF10BD776500409C
:400580009764004008B5054B1B7823B9FFF7C6FF0122024B1A70FFF785FF08BD9D81FF1F014B1B689864704708ED00E04001C0B2014B1870704700BF02E400E00422014BC8
:4005C0001A60704700E100E00422014B1A60704780E100E010B50446FFF7F6FF2046FFF7DFFF0720FFF7E2FFFFF7E8FF10BD00BF10B5044605E0084B186800F0F5F9A4F54C
:400600000044B4F5004FF6D8034B586800FB04F000F0EAF910BD00BF0C81FF1F08B5034B1B7A03FB00F000F0DFF908BD0C81FF1FCBB20370C1F307234370C1F30741817075
:40064000704700BF014B1870704700BF77640040014B1B681864704708ED00E04001C0B2014B1870704700BF00E400E00122014B1A60704700E100E00122014B1A60704706
:4006800080E100E010B50446FFF7F6FF2046FFF7DFFF0720FFF7E2FFFFF7E8FF10BD00BF014B1B685864704708ED00E04001C0B2014B1870704700BF01E400E00222014B15
:4006C0001A60704700E100E00222014B1A60704780E100E010B50446FFF7F6FF2046FFF7DFFF0720FFF7E2FFFFF7E8FF10BD00BF10B50B4C237803F09F032370237803F01E
:40070000F00323702378184340F0100020700120FFF784FF237803F0EF03237010BD00BF2051004038B505460E4C237843F020032370237803F0BF0323700020FFF76EFF07
:40074000237803F0F003237023781D4345F0100525700120FFF762FF237803F0EF03237038BD00BF2051004070B5354B1A7802F08002D2B21A7033490A7802F0F00242F0CE
:400780000F020A7001310A7802F0F0020A7001310A7802F0F0020A701A7802F0DF021A701A7842F040021A704FF4CA760020FFF735FF234D2B7843F010032B700120FFF733
:4007C0002DFF214B1C78E4B22B7803F0EF032B700020FFF723FF04F00804E4B22B7843F010032B700120FFF719FF2B7803F0EF032B7014B90A20FFF711FF013E0CB1002E49
:40080000D4D10F4A137803F0BF031370137803F08003DBB213700232137803F0F00313700132137803F0F00343F00F0313700132137803F0F00343F00F03137070BD00BFFA
:4008400020510040225100402151004010B50446FFF78AFF2009FFF765FF04F00F00FFF761FF10BD38B505460078012404E0FFF7EDFF285D0134E4B20028F8D138BD00BF9B
:4008800008B5FFF7E3FF08BD10B50446FFF76CFF2009FFF72DFF04F00F00FFF729FF10BD08B52820FFF7A4FE0320FFF721FF0520FFF79EFE0320FFF71BFF0F20FFF798FEBA
:4008C0000320FFF715FF0120FFF792FE0220FFF70FFF0520FFF78CFE0620FFF7D5FF0E20FFF7D2FF2C20FFF7CFFF0820FFF7CCFF0120FFF7C9FF0C20FFF7C6FF0320FFF79C
:40090000C3FF0520FFF774FE014800F057F808BDD40A000008B50C20FFF7B6FF0122014B1A7008BD9E81FF1F08B5054B5B7823B9FFF7B6FF0122024B5A70FFF7EBFF08BD68
:400940009E81FF1F08B5032819D8DFE800F002070D1381F08000FFF797FF08BDA1F14000C0B2FFF791FF08BDA1F16C00C0B2FFF78BFF08BDA1F12C00C0B2FFF785FF08BD8C
:4009800038B504460309054DE85CFFF779FF04F00F04285DFFF774FF38BD00BFC40A000038B50546202406E0083CE4B225FA04F0C0B2FFF7E5FF002CF6D138BD38B50546BE
:4009C000FFF7D2FE4020FFF75FFF002404E0285DFFF73CFF0134E4B23F2CF8D9FFF7C4FE8020FFF751FF38BD0230800803D000BF01380046FCD17047EFF3108072B6704785
:400A000080F31088704700BF014B1868704700BF7C81FF1F0E4B70B51E460E4C0025E41AA410A54204D056F8253098470135F8E700F072F8084B094C1E46E41AA410002536
:400A4000A54204D056F8253098470135F8E770BD240B0000240B0000240B00002C0B000010B5431E0A44914204D011F8014B03F8014FF8E710BD03460244934202D003F89B
:400A8000011BFAE770470000000000002020202020202000005100401000305100404000F0510040100000000140001000140140000800400140000A004C01400002005057
:400AC0000140200030313233343536373839414243444546000E0808080E0000000A0A0404040000000E0A0E08080000000E0A0C0A0A0000000E080C080E0000000E080ED5
:400B0000020E0000000E080E020E0000000404040004000043000000F8B500BFF8BC08BC9E4670474D0000006D010000F8B500BFF8BC08BC9E46704729000000500B0000E1
:400B40000881FF1F780000002800000000000000000000000000E02EC05D00001800000000366E010000000000000000000000000000000000000000000000000000000046
:400B800000000000140B0000000000000000000000000000000000000000000000000000000000000000000000000000000000000000000000000000000000000000000016
:400BC000000000001C81FF1F00000000000000000000000000000000000000000000000000000000000000000000000000000000000000000000000000000000000000003A
:400C000000000000000000000000000000000000000000000000000000000000000000000000000000000000000000000000000000000000000000000000000000000000B4
:400C40000000000000000000000000000000000000000000000000000000000000000000000000000000000000000000000000000000000000000000000000000000000074
:400C80000000000000000000000000000000000000000000000000000000000000000000000000000000000000000000000000000000000000000000000000000000000034
:400CC00000000000000000000000000000000000000000000000000000000000000000000000000000000000000000000000000000000000000000000000000000000000F4
:020000040003F7
:0200000480007A
:400000000252004001640040016500403A0601401F070140010901403E1401403115014036160140271701400440014002410140024201400243014002470140044801405D
:400040000B490140034C0140085001400151014009806008870F840F4010410649FF4AFF4BFF4DA04F0450185A045F01604062C06440654066C068C06AC06CC06EC08401DB
:400080009A019B019E02A701AA02B202B401B701BE04C010C106C5D1C650C702C81BC9FFCAFFCBFFCDAFCE0FCF04D018D407D804D904DA04DB04DC90DF01E040E2C0E44051
:4000C000E540E6C0E8C0EAC0ECC0EEC0000809601208191422802B1030204002440245404780481049014A084B044E0850105120520859155A8069808D40C004C203C402BF
:40010000CA02CC04D018D224D60FE410060407010A030D0117011E012604300431013202330134013E013F0440234104420649FF4AFF4BFF4F01501854035604580459046C
:400140005A045B045C905D995F056040624064406540668068806A806C806E80C063C104C202C9FFCAFFCBFFCD83CE03CF01D018DA04DD09DF01E040E240E440E540E680EA
:40018000E880EA80EC80EE8000240A021020180419041A401B1021012208232031083884404442204502462047204A084F20591A5A4060C061027880831085018C409080B9
:4001C00092029404991A9A209D049F20A030A108A502A710C006C201C404CC02CE0AD0E7D224D60FD801DE08E24040634104420245EC4620480B49FF4AFF4BFF4D834E03B3
:400200004F0150185A045D095F016040624064406540668068806A806C806E80862D870488208A118B038C2D902992129301966D9C209E0EA308A504B040B108B218B30126
:40024000B420B502B607B704BA88D280D804D904DB04DC09DF0100440308090A0A0118C019101A011B0820082108224123802905320138203B044502462047204D0A4F20B5
:400280005420562071019020930496809F80A010A424A710AE80C007C20DCA03CC01CE06D0E0D220310232203610CC70A502A630A502A630A502A6308D08E408A502A620F7
:4002C000AE10EE10700171027504810486208C01A502A620DC80DE20E6C06108A108D802000101010A010B01100111011A011B01003F0000000A0A000A000000008B8B00ED
:4003000080000000007F7F0000000000000000000000000000000000000000000000000000000000000000000000000000000000000000000000000000000000000000003F
:40034000000000000000000000000000000000000000000000000000000000000000000000000000000000000000000000000000000000000000000000000000000000007D
:40038000000000000000000000000000000000000000000000000000000000000000000000000000000000000000000000000000000000000000000000000000000000003D
:4003C00000000000000000000000000000000000000000000000000000000000000000000000000000000000000000000000000000000000000000000000000000000000FD
:4004000000000000000000000000000000000000000000000000000000000000000000000000000000000000000000000000000000000000000000000000000000000000BC
:0200000490006A
:0400000000004005B7
:0200000490105A
:04000000BC90ACAF55
:0200000490303A
:0200000051218C
:0200000490402A
:4000000000000000000000000000000000000000000000000000000000000000000000000000000000000000000000000000000000000000000000000000000000000000C0
:400040000000000000000000000000000000000000000000000000000000000000000000000000000000000000000000000000000000000000000000000000000000000080
:400080000000000000000000000000000000000000000000000000000000000000000000000000000000000000000000000000000000000000000000000000000000000040
:4000C0000000000000000000000000000000000000000000000000000000000000000000000000000000000000000000000000000000000000000000000000000000000000
:0200000490501A
:0C00000000012E12306900012E17818AC9
:00000001FF