:400000000080002011000000050500000505000008B5044B1A6803F53F5302331A6000F079FA00BFFA46004010B5054C237833B9044B13B10448AFF300800123237010BDF0
:400040008881FF1F00000000201E0000084B10B51BB108480849AFF300800848036803B910BD074B002BFBD0BDE81040184700BF00000000201E00008C81FF1F0881FF1FC5
:400080000000000010B500F00FFA00F037F962B6002401F061FA002845D001F047FA7A2808D1844B1B68032B3ADC0133814A1360002438E0732809D17E4B1B6813F1030FD5
:4000C00030DB013B7B4A136000242CE0642812D1322000F04BF90120002100F087FF764800F018FF0120002100F080FF734800F011FF0A2417E0712815D1322000F048F94C
:400100000120002100F072FF6D4800F003FF0120002100F06BFF6B4800F0FCFE0A2402E0002400E00024684B1B78012BB1D1674B1B88B3F5967F06D25E4B1B68002B02DDF0
:4001400000225C4B1A60002C40F0AE80594B1B680433082B00F2A980DFE803F09482705E0516283A4C000120002100F03FFF524800F0D0FE0120002100F038FF544800F0E2
:40018000C9FE00F0C9F890E00120002100F02EFF504800F0BFFE0120002100F027FF4E4800F0B8FE322000F0BDF87EE00120002100F01CFF474800F0ADFE0120002100F021
:4001C00015FF464800F0A6FE642000F0ABF86CE00120002100F00AFF3E4800F09BFE0120002100F003FF3E4800F094FEC82000F099F85AE00120002100F0F8FE354800F0A8
:4002000089FE0120002100F0F1FE364800F082FEFF2000F087F848E00120002100F0E6FE2C4800F077FE0120002100F0DFFE2E4800F070FE322000F087F836E00120002187
:4002400000F0D4FE234800F065FE0120002100F0CDFE264800F05EFE642000F075F824E00120002100F0C2FE214800F053FE0120002100F0BBFE1F4800F04CFEC82000F062
:4002800063F812E00120002100F0B0FE184800F041FE0120002100F0A9FE174800F03AFEFF2000F051F800E0013C0022064B1A70EFE600BFA481FF1FB01E0000241E0000C9
:4002C0002C1E00003C1E0000A881FF1F0C81FF1F441E00004C1E00005C1E0000681E0000741E0000801E00008C1E00009C1E0000AC1E0000C01E0000D01E000008B501F0C4
:4003000007F901F0E5F801F05FF801F0D3F801F02FF801F0A3F808BD08B5002001F028F908BD00BF10B504460F2001F021F9204600F0F6FF204600F0F9FF204601F066F878
:40034000204601F069F810BD10B50446F02001F00FF9204600F0E4FF204600F0E7FF204601F054F8204601F057F810BD10B50446A52001F0FDF8204600F0D2FF204600F01E
:40038000D5FF204601F042F8204601F045F810BD10B504465A2001F0EBF8204600F0C0FF204600F0C3FF204601F030F8204601F033F810BD0000000070B500F00BFC124EA3
:4003C000306000F027FB114C0125257000F0F4FB3068C0F180700E4BA3FB0030C0F34F1001F046FA06A3D3E9002301F0A7FA01F0B7FC084B1880257070BD00BFAFF3008075
:40040000C3F5285C8FC2D53FBC81FF1FB881FF1FABAAAAAA0C81FF1F08B50E4B1B786BB900200B2100F0E2FD0B4800F073FD00200B2100F0DBFD094800F06CFD4FF47A728D
:40044000074B1A80002000F035FE0022014B1A7008BD00BFB881FF1FB81E0000E01E00000C81FF1F08B500F02DFB012000F022FE00F0C8FE0122094B1A7000200B2100F002
:40048000B5FD074800F046FD00200B2100F0AEFD044B188800F0C8FD08BD00BFA881FF1FB81E00000C81FF1F08B5114800F06AFC104800F013FF104800F088FE00F03AFC77
:4004C00000F000FB00F060FB00F0B8FB00F080FD00F086FA00F052FE00F0D8FE0021074B1970084600F082FD054800F013FD08BDB90300006504000019040000B881FF1FDC
:40050000E81E000008B501F04BFC03680C2B00D1FEE7FEE708B5104E104D16E029686B68AC68002204E051F8040B43F8040B0432A242F8D1E868002203E0002143F8041B42
:4005400004328242F9D11035013E002EE6D101F02DFCFFF797FDFEE701000000B41F000008B5124A124B1A60124A136843F40073136000230AE0032B03D80F4A52F8231021
:4005800000E00E490E4A42F8231001332F2BF2D90C4B1A780C4B1A70094A0C4B1A6000F0DBF800220A4B1A6008BD00BF0004FA050CED00E014ED00E00000000005050000F9
:4005C0000080FF1FBC7600400481FF1F08ED00E00081FF1FFEE700BFF0B40022174611E050F82760F3B226F0FF0608E001EB420511F812406D78A5550132013BDBB2002B11
:40060000F4D10137232FEBD9F0BC7047124B1B78DBB203F00701114A11701B09013213704023A2F2227213700C2102F21F72117002F5CA7213700122094B1A708022023347
:400640001A70202307490B7040310A70064A13704422064B1A707047CF0100496E580040065A0040905A0040D45A00407658004008B50A46002101F0CAFB08BD38B501220E
:40068000284B1A80182328490B7002310A80274A13704FF49C7102321180023213700222234B1A7008224FF040231A70032103F5007319701F4B1B78DBB21F490B701F4B28
:4006C0001A8041F25122023B1A80002419250CE01B4B1B7803F0010343EA440404F003044FF4F07000F058FF013D0DB1032CEFD115B90320FFF76EFF124B4FF480721A80E0
:4007000007221A70002210490A704820023108701A700222033B1A700C4A137843F00703137038BD8040004082400040864000400043004008010049A1460040224200404A
:40074000254200400440004006400040A243004008B501F051FB08BD70B572B6464A137843F00403137000240CE0444963001A1952000A4423445B00C8589188FFF778FF84
:400780000134E4B2062CF0D900240FE03B49A3001A1952000A4452F82C0F23445B000B4451689A8EFFF7D4FF0134E4B2012CEDD94FF090403249FFF70FFF40F20322314B07
:4007C0001A8002F1804202F5A732137843F0020313701032137843F0020313702A4C237843F040032370A2F58632513A137843F010031370254826490822FFF7A9FF2548B3
:4008000025490822FFF7A4FF244825490822FFF79FFF244824490822FFF79AFF234824490822FFF795FF234823490822FFF790FF224823490822FFF78BFF224822490822CC
:40084000FFF786FFC422214B1A70214A137843F0080313701F4E01253570FFF70FFF812333701D4B1D70FFF7D1FE1C4821460E22FFF76EFF70BD00BFE8460040F41E000063
:40088000900000484C580040A043004002510040A4080048C2510040AC08004812510040B408004822510040BC08004832510040C408004842510040CC0800485251004074
:4008C000D408004862510040DC080048DB060140224300400048004004000840B043004010B5044605E0084B186800F055FEA4F50044B4F5004FF6D8034B586800FB04F03D
:4009000000F04AFE10BD00BF1081FF1F08B5034B1B7A03FB00F000F03FFE08BD1081FF1F014B1880704700BF0C6A0040014B1880704700BF8C6A0040014B1880704700BF1B
:400940004C6A0040014B1880704700BF6C6A0040014B1870704700BF87650040014B1878704700BF67650040014B188880B27047AC6A004008B501E0FFF7F6FFFFF7EEFFA6
:4009800010F0100FF8D108BD10B5134A137843F001031370114C237843F00103237040F22B10FFF7BDFF40F22B10FFF7BFFF9620FFF7C2FF9620FFF7C5FF0020FFF7C8FF67
:4009C00000F0F2FD237843F01003237000F0F0FDFFF7D0FF10BD00BF966500409765004008B5044B1B7823B9FFF7CEFF0122014B1A7008BDA981FF1F054A137843F00403A7
:400A000013701032137843F004031370704700BFA7430040054A137803F0FB0313701032137803F0FB031370704700BFA74300400F490B7803F0FC0200F0030313430B7047
:400A400001280AD10B4B1B78DBB20B4A13700B4B1B78DBB2013213707047094B1B78DBB2054A1370074B1B78DBB201321370704742580040120100493446004016010049CC
:400A8000B1010049B901004908B50220FFF7D0FF0B4B1A7802F0DF021A701A7802F0FB021A701A7842F008021A7003F295231A7802F0E7021A701A7842F010021A7008BD23
:400AC0004258004008B5054B1B7823B9FFF7DCFF0122024B1A70FFF78FFF08BDAA81FF1F054A137843F0040313701032137843F004031370704700BFA8430040054B1A789F
:400B000002F0FD021A701A7800F0020010431870704700BF28580040014B1870704700BF825B0040064B1B78C3F3810303F19243063393F82831DBB2024A1370704700BF68
:400B4000285800400A46004008B5064B1A7802F0F3021A701A7800F00C0010431870FFF7E1FF08BD2858004010B50024054B1C7001331C700420FFF7E7FF2046FFF7BEFFB2
:400B800010BD00BF2858004008B5074B1B7823B9FFF7EAFF0122044B1A70FFF7A1FF8320FFF7BAFF08BD00BFAB81FF1F014B1870704700BF87640040014B1878704700BF13
:400BC0006764004008B50146014800F0F5FC08BD25640040024B186820F07F40704700BF4564004008B50146014800F0E5FC08BD0564004008B501E0FFF7ECFFFFF7DCFF57
:400C000010F0080FF8D108BD08B56FF07F40FFF7D9FF6FF07F40FFF7E5FF00F0C5FC064A137843F01003137000F0C2FCFFF7E2FF0220FFF7BBFF08BD9764004008B5044BB6
:400C40001B7823B9FFF7E0FF0122014B1A7008BDAC81FF1F084A137843F0010313701032137843F00103137002F5A5521E32137843F0800313707047A9430040044A13784B
:400C800003F0FC0300F0030018431070704700BF0158004010B487B00446194B03AA1868596803C2197A11706A4653F80C0F596803C21B7A1370082C1ED812490B7803F046
:400CC0008003DBB20B70087806AB1C4414F80C3C14F8182C920002F00C02134303430B70094A137803F0F3031370117814F8183C0B4343F00C03137007B05DF8044B704733
:400D0000341F0000025800400158004008B50C22064B1A70064A1378DBB213700220FFF7B9FF0120FFF7AAFF08BD00BF005800400158004008B5054B1B7823B90122034B4A
:400D40001A70FFF7E3FFFFF785FF08BDAD81FF1F014B1B685864704708ED00E04001C0B2014B1870704700BF01E400E00222014B1A60704700E100E00222014B1A607047AA
:400D800080E100E010B50446FFF7F6FF2046FFF7DFFF0720FFF7E2FFFFF7E8FF10BD00BF10B50B4C237803F09F032370237803F0F00323702378184340F01000207001207D
:400DC000FFF7A4FD237803F0EF03237010BD00BF2051004038B505460E4C237843F020032370237803F0BF0323700020FFF78EFD237803F0F003237023781D4345F0100519
:400E000025700120FFF782FD237803F0EF03237038BD00BF2051004070B5354B1A7802F08002D2B21A7033490A7802F0F00242F00F020A7001310A7802F0F0020A70013173
:400E40000A7802F0F0020A701A7802F0DF021A701A7842F040021A704FF4CA760020FFF755FD234D2B7843F010032B700120FFF74DFD214B1C78E4B22B7803F0EF032B701A
:400E80000020FFF743FD04F00804E4B22B7843F010032B700120FFF739FD2B7803F0EF032B7014B90A20FFF731FD013E0CB1002ED4D10F4A137803F0BF031370137803F0CE
:400EC0008003DBB213700232137803F0F00313700132137803F0F00343F00F0313700132137803F0F00343F00F03137070BD00BF20510040225100402151004010B504464E
:400F0000FFF78AFF2009FFF765FF04F00F00FFF761FF10BD38B505460078012404E0FFF7EDFF285D0134E4B20028F8D138BD00BF10B50446FFF770FF2009FFF731FF04F042
:400F40000F00FFF72DFF10BD08B52820FFF7C8FC0320FFF725FF0520FFF7C2FC0320FFF71FFF0F20FFF7BCFC0320FFF719FF0120FFF7B6FC0220FFF713FF0520FFF7B0FC9F
:400F80000620FFF7D5FF0E20FFF7D2FF2C20FFF7CFFF0820FFF7CCFF0120FFF7C9FF0C20FFF7C6FF0320FFF7C3FF0520FFF798FC014800F069F808BD4C1F000008B50C2050
:400FC000FFF7B6FF0122014B1A7008BDAE81FF1F08B5054B5B7823B9FFF7B6FF0122024B5A70FFF7EBFF08BDAE81FF1F08B5032819D8DFE800F002070D1381F08000FFF708
:4010000097FF08BDA1F14000C0B2FFF791FF08BDA1F16C00C0B2FFF78BFF08BDA1F12C00C0B2FFF785FF08BD00B585B000238DF80E30092210E0134BA3FB0013DB08194666
:4010400003EB83035B00C31A303304A8104400F80C3C0846013AD2B20928ECD8094BA3FB0013DB0803EB83035B00C31A303304A9114401F80C3C01AB9818FFF74BFF05B094
:401080005DF804FBCDCCCCCC38B50546FFF7C4FE4020FFF74DFF002404E0285DFFF72EFF0134E4B23F2CF8D9FFF7B6FE8020FFF73FFF38BD014B1870704700BF746500408C
:4010C000024A137843F080031370704777640040014B1870704700BF8C640040014B1878704700BF6C640040014B1870704700BF0C640040014B1878704700BF4C640040F6
:40110000014B1870704700BF2C640040014B1870704700BF3C64004008B501E0FFF7EAFFFFF7DCFF10F0400FF8D108BD08B5114B1A7802F0F8021A701A7802F0FC021A7013
:40114000FFF7EAFF0A20FFF7DBFF0A20FFF7CCFF0020FFF7BDFFFFF7C1FF0020FFF7D6FF00F022FA044A137843F01003137000F01FFA08BD776400409C64004008B5054B54
:401180001B7823B9FFF7D2FF0122024B1A70FFF797FF08BDB081FF1F014B1B681864704708ED00E04001C0B2014B1870704700BF00E400E00122014B1A60704700E100E066
:4011C0000122014B1A60704780E100E010B50446FFF7F6FF2046FFF7DFFF0720FFF7E2FFFFF7E8FF10BD00BF024A137843F08003137070477C640040014B1870704700BF42
:4012000084640040014B1878704700BF6464004008B50146014800F0CFF908BD22640040024B186820F07F40704700BF4264004008B50146014800F0BFF908BD0264004044
:4012400008B501E0FFF7ECFFFFF7DCFF10F0080FF8D108BD10B50B4C2046FFF7D9FF2046FFF7E6FF00F0A0F9074A137843F01003137000F09DF9FFF7E3FF0120FFF7BCFF8A
:4012800010BD00BFFF340C009464004008B5054B1B7823B9FFF7DEFF0122024B1A70FFF7A3FF08BDB181FF1F014B1B689864704708ED00E04001C0B2014B1870704700BFE1
:4012C00002E400E00422014B1A60704700E100E00422014B1A60704780E100E010B50446FFF7F6FF2046FFF7DFFF0720FFF7E2FFFFF7E8FF10BD00BF024A137843F08003B8
:401300001370704776650040014B1870704700BF05650040014B1870704700BF45650040014B1870704700BF25650040014B1870704700BF35650040014B1870704700BFAE
:4013400085650040014B1878704700BF65650040014B1878704700BF5565004008B501E0FFF7F6FFFFF7EEFF10F0100FF8D108BD10B5134A137803F0C00343F0090313705D
:40138000104C237843F001032370FF20FFF7BCFFFF20FFF7BFFF3220FFF7C2FF6420FFF7C5FF0020FFF7C8FF00F0FEF8237843F01003237000F0FCF8FFF7D0FF10BD00BF16
:4013C000766500409565004008B5054B1B7823B9FFF7CEFF0122024B1A70FFF78DFF08BDB281FF1F024A137843F080031370704773640040014B1870704700BF0F640040EC
:40140000014B1870704700BF4F640040014B1870704700BF2F640040014B1870704700BF3F640040014B1870704700BF83640040014B1878704700BF63640040014B18787F
:40144000704700BF5F64004008B501E0FFF7F6FFFFF7EEFF10F0100FF8D108BD08B5134A137803F0C00343F0090313702C32137843F001031370FF20FFF7BCFFFF20FFF735
:40148000BFFF7F20FFF7C2FF3F20FFF7C5FF0020FFF7C8FF00F088F8054A137843F01003137000F085F8FFF7CFFF08BD736400409364004008B5054B1B7823B9FFF7CEFF8C
:4014C0000122024B1A70FFF78DFF08BDB381FF1F7222034B1A702022013B1A70704700BF8E64004010B500F05FF80446074A137843F020031370013A137843F010031370A3
:4015000000F03CF8204600F053F810BD9E64004008B5054B1B7823B9FFF7DAFF0122024B1A70FFF7DFFF08BDB481FF1F084B1B78DBB213F0200F06D0064A1078C0B213F0DE
:401540001E0F02D17047002070470020704700BF6D6400404E640040044B1B7813F0200F01D0012070470020704700BF6D640040014B1870704700BF72640040054A1378A6
:4015800043F0040313701032137843F004031370704700BFA24300400230800803D000BF01380046FCD17047EFF3108072B6704780F31088704700BFCBB20370C1F307235A
:4015C0004370C1F307418170704700BF81F0004102E000BF83F0004330B54FEA41044FEA430594EA050F08BF90EA020F1FBF54EA000C55EA020C7FEA645C7FEA655C00F04C
:40160000E2804FEA5454D4EB5555B8BF6D420CDD2C4480EA020281EA030382EA000083EA010180EA020281EA0303362D88BF30BD11F0004F4FEA01314FF4801C4CEA11313D
:4016400002D0404261EB410113F0004F4FEA03334CEA133302D0524263EB430394EA050F00F0A780A4F10104D5F1200E0DDB02FA0EFC22FA05F2801841F1000103FA0EF251
:40168000801843FA05F359410EE0A5F120050EF1200E012A03FA0EFC28BF4CF0020C43FA05F3C01851EBE37101F0004507D54FF0000EDCF1000C7EEB00006EEB0101B1F54B
:4016C000801F1BD3B1F5001F0CD349085FEA30004FEA3C0C04F101044FEA445212F5800F80F09A80BCF1004F08BF5FEA500C50F1000041EB045141EA050130BD5FEA4C0C9C
:40170000404141EB010111F4801FA4F10104E9D191F0000F04BF01460020B1FA81F308BF2033A3F10B03B3F120020CDA0C3208DD02F1140CC2F10C0201FA0CF021FA02F1C5
:401740000CE002F11402D8BFC2F1200C01FA02F120FA0CFCDCBF41EA0C019040E41AA2BF01EB0451294330BD6FEA04041F3C1CDA0C340EDC04F11404C4F1200220FA04F084
:4017800001FA02F340EA030021FA04F345EA030130BDC4F10C04C4F1200220FA02F001FA04F340EA0300294630BD21FA04F0294630BD94F0000F83F4801306BF81F48011E4
:4017C0000134013D4EE77FEA645C18BF7FEA655C29D094EA050F08BF90EA020F05D054EA000C04BF1946104630BD91EA030F1EBF0021002030BD5FEA545C05D14000494185
:4018000028BF41F0004130BD14F580043CBF01F5801130BD01F0004545F0FE4141F470014FF0000030BD7FEA645C1ABF194610467FEA655C1CBF0B46024650EA013406BF61
:4018400052EA033591EA030F41F4002130BD00BF90F0000F04BF0021704730B54FF4806404F132044FF000054FF0000150E700BF90F0000F04BF0021704730B54FF4806454
:4018800004F1320410F0004548BF40424FF000013EE700BF42004FEAE2014FEA31014FEA02701FBF12F07F4393F07F4F81F06051704792F0000F14BF93F07F4F704730B57A
:4018C0004FF4607401F0004521F0004120E700BF50EA010208BF704730B54FF000050AE050EA010208BF704730B511F0004502D5404261EB41014FF4806404F132045FEA4D
:40190000915C3FF4DCAE4FF003025FEADC0C18BF03325FEADC0C18BF033202EBDC02C2F1200300FA03FC20FA02F001FA03FE40EA0E0021FA02F11444C1E600BF70B54FF035
:40194000FF0C4CF4E06C1CEA11541DBF1CEA135594EA0C0F95EA0C0F00F0DEF82C4481EA030621EA4C5123EA4C5350EA013518BF52EA033541F4801143F4801338D0A0FBFC
:4019800002CE4FF00005E1FB02E506F00042E0FB03E54FF00006E1FB03569CF0000F18BF4EF0010EA4F1FF04B6F5007F64F5407404D25FEA4E0E6D4146EB060642EAC621D4
:4019C00041EA55514FEAC52040EA5E504FEACE2EB4F1FD0C88BFBCF5E06F1ED8BEF1004F08BF5FEA500E50F1000041EB045170BD06F0004646EA010140EA020081EA03019C
:401A0000B4EB5C04C2BFD4EB0C0541EA045170BD41F480114FF0000E013C00F3AB8014F1360FDEBF002001F0004170BDC4F10004203C35DA0C341BDC04F11404C4F1200593
:401A400000FA05F320FA04F001FA05F240EA020001F0004221F0004110EBD37021FA04F642EB06015EEA430E08BF20EAD37070BDC4F10C04C4F1200500FA04F320FA05F0C3
:401A800001FA04F240EA020001F0004110EBD37041F100015EEA430E08BF20EAD37070BDC4F1200500FA05F24EEA020E20FA04F301FA05F243EA020321FA04F001F0004103
:401AC00021FA04F220EA020000EBD3705EEA430E08BF20EAD37070BD94F0000F0FD101F00046400041EB010111F4801F08BF013CF7D041EA060195F0000F18BF704703F0F3
:401B00000046520043EB030313F4801F08BF013DF7D043EA0603704794EA0C0F0CEA135518BF95EA0C0F0CD050EA410618BF52EA4306D1D181EA030101F000414FF00000D7
:401B400070BD50EA410606BF1046194652EA430619D094EA0C0F02D150EA013613D195EA0C0F05D152EA03361CBF104619460AD181EA030101F0004141F0FE4141F4700107
:401B80004FF0000070BD41F0FE4141F4780170BD70B54FF0FF0C4CF4E06C1CEA11541DBF1CEA135594EA0C0F95EA0C0F00F0A7F8A4EB050481EA030E52EA03354FEA013109
:401BC00000F088804FEA03334FF0805545EA131343EA12634FEA022245EA111545EA10654FEA00260EF000419D4208BF964244F1FD0404F5407402D25B084FEA3202B61AAA
:401C000065EB03055B084FEA32024FF480104FF4002CB6EB020E75EB030E22BFB61A754640EA0C005B084FEA3202B6EB020E75EB030E22BFB61A754640EA5C005B084FEAF6
:401C40003202B6EB020E75EB030E22BFB61A754640EA9C005B084FEA3202B6EB020E75EB030E22BFB61A754640EADC0055EA060E18D04FEA051545EA16754FEA06164FEAA2
:401C8000C30343EA52734FEAC2025FEA1C1CC0D111F4801F0BD141EA00014FF000004FF0004CB6E711F4801F04BF01430020B4F1FD0C88BFBCF5E06F3FF6AFAEB5EB030C49
:401CC00004BFB6EB020C5FEA500C50F1000041EB045170BD0EF0004E4EEA113114EB5C04C2BFD4EB0C0541EA045170BD41F480114FF0000E013C90E645EA060E8DE60CEA49
:401D0000135594EA0C0F08BF95EA0C0F3FF43BAF94EA0C0F0AD150EA01347FF434AF95EA0C0F7FF425AF104619462CE795EA0C0F06D152EA03353FF4FDAE1046194622E7C1
:401D400050EA410618BF52EA43067FF4C5AE50EA41047FF40DAF52EA43057FF4EBAE12E74A0011D212F5001211D20DD56FF47873B3EB62520ED44FEAC12343F0004343EA1C
:401D8000505323FA02F070474FF00000704750EA013002D14FF0FF3070474FF000007047014B1868704700BF8081FF1F0E4B70B51E460E4C0025E41AA410A54204D056F8EE
:401DC000253098470135F8E700F0E2F8084B094C1E46E41AA4100025A54204D056F8253098470135F8E770BD9C1F00009C1F00009C1F0000A41F000010B5431E0A44914233
:401E000004D011F8014B03F8014FF8E710BD03460244934202D003F8011BFAE7704700000000000044524F49544500002020202020202020202020202020000047415543F6
:401E40004845000053544F5000000000202020202020202020202020202020004156414E54205649542031004156414E54205649542032004156414E542056495420330012
:401E80004156414E54205649542034004152524945524520564954203100000041525249455245205649542032000000202020202020202020202020202020202000000044
:401EC0004152524945524520564954203300000041525249455245205649542034000000494E46202000000044495354414E4345203A0000F0510040100000000140000E5F
:401F0000800E0140800100140140000800400140000A004C014000021050014010000000000E014014080048800000500140940800481000112131415171536373000000E2
:401F4000080901010502070404000000000E0808080E0000000A0A0404040000000E0A0E08080000000E0A0C0A0A0000000E080C080E0000000E080E020E0000000E080EE6
:401F8000020E0000000404040004000043000000F8B500BFF8BC08BC9E4670474D00000061050000F8B500BFF8BC08BC9E46704729000000C81F00000881FF1F80000000D6
:401FC000380000000000000000000000E80300000000E02EC05D00001800000000366E010000000000000000000000000000000000000000000000000000000000000000D6
:402000008C1F0000000000000000000000000000000000000000000000000000000000000000000000000000000000000000000000000000000000000000000000000000F5
:402040002081FF1F000000000000000000000000000000000000000000000000000000000000000000000000000000000000000000000000000000000000000000000000A1
:402080000000000000000000000000000000000000000000000000000000000000000000000000000000000000000000000000000000000000000000000000000000000020
:4020C00000000000000000000000000000000000000000000000000000000000000000000000000000000000000000000000000000000000000000000000000000000000E0
:40210000000000000000000000000000000000000000000000000000000000000000000000000000000000000000000000000000000000000000000000000000000000009F
:40214000000000000000000000000000000000000000000000000000000000000000000000000000000000000000000000000000000000000000000000000000000000005F
:020000040003F7
:0200000480007A
:400000000C5200400664004002650040020101404302014037030140550401403E0501404C0601402F07014001090140030B01404F0C0140460D01401A0E01402D0F0140B4
:4000400034140140301501404D1601402F17014002190140021B01400B400140114101400F4201400343014005440140054501400846014005470140014801400749014008
:40008000094C0140054D014004500140015101400040018008C0094018C0194020062123280134406004610C830F840D870F8C6B8D388E72850F870F8002E6010E011B01E1
:4000C0002A012F0131013401405249FF4AFF4BFF4F015018580459045A045B045D095F016040624064406540668068806A806C806E808E0491019B039E04A104A704AA0260
:40010000AE01B002B102B404B501B601B704BE10C013C9FFCAFFCBFFCD83CE03CF01D018D280D407D804D904DA04DB04DD09DF01E040E240E440E540E680E880EA80EC805E
:40014000EE8001800580098010061404160819811A061F2021022250274029012A082D80313235104108420246044D4058025AA46C046D046F817002748075027620770811
:40018000814082028708888089048D0298029A08A1A0A780AB80AE08B5A0C081C201C443CA13CC25D02AD210D60FE2C0E604EE0202020301060207010C020D010F02100200
:4001C000160117021D012002230128022E013303340236013B083E40401345EC4702481349FF4AFF4BFF4D834E034F01501854015604580459045A045B045C995D995F0162
:400200006040624064406540668068806A806C806E808A058C05910196019E06A001A202A301AE05B607B701BA80C035C104C202C9FFCAFFCBFFCF01D018D804D904DA0441
:40024000DB04DC99DD09DF01E040E240E440E540E680E880EA80EC80EE80000401010301070A09080B800E010F10114012881601170119901E011FC02208231025402680B9
:4002800027022B802C802D0132883701380439013A41410842024640472949054C0151085204598562026E808044860291409A029E04A508AB60AE01B220B301B404C0CD23
:4002C000C2ACC49BCA81CC8ACE0BD0EAD210D60BD801EA10EC020B020D01160117011F0223012D012E013301350236013F0440354104420249FF4AFF4BFF4D834E034F015E
:400300005018580459045A045D095F016040624064406540668068806A806C806E8087028D039E01A601AF01B503B601BE40C025C104C203C5ECC720C823C9FFCAFFCBFF92
:40034000CD83CE03CF01D018D280D403D604D804D904DA04DB04DC10DD99DF05E040E240E440E540E680E880EA80EC80EE800B020C081308174019401C02200423082418B3
:40038000272028012C812E40374838443C203D8040144240472949054A024C015001520253015955604073407801944699109F29A140A481AC01AE40C221C484CA98CC5069
:4003C000CE3AD0E7D218D60FD801DE019F209F20AF02ECA00301040414011E04260330043202330136013E414023454C4620470E481B49FF4AFF4BFF4DA04F0150185280DA
:40040000540B580459045A045B045C995D995F016040628064406540668068406A506BA86C406D206E506FA8827384218680870188428B028C0C8E7390639302940F96701F
:40044000987399019A0C9C7F9D01A008A404A80CAB01B060B101B21CB40FB502B680B902BA28BF10D418D804D904DB04DC22DD20DF01002201080301071009800A140B4085
:400480000E200F0110A8162019011A151B281E622004210227102B0831823320380839203F014420462047204F05562859015C205E426004630266086704750281028A10C5
:4004C000900891209340961199089B019F02A0B9A180A301A720AE20B020B108B204B301B505C02FC2AFC42ECA04CC0DCE86D060D6B1D86CE020E280E480EA10EE40BA808B
:40050000C040C101C501C6D0C725C839C9FFCAFFCBFFCDA0CF04D018D804DA04DC02DF01E040E2C0E440E540E6C0E8C0EAC0ECC0EEC0020203A80A150B8010A918081940CD
:400540001A041B091D801F80202A2108234028203108324039143B4043A84602470248054A024E2051105340550556025710594069146A8070A883108801C00FC20FC40F35
:40058000CA02CC0ACE0ED09ED20CD6080B020F0117021E01320133013702580459045B045C195F0196019D019E02A104A703AB04AE02B104B301B402B601B702BE10C01001
:4005C000C104C5D0C650C721C83AC9FFCAFFCBFFCDA0CF04D018D407D804D904DA04DB04DF01E040E2C0E440E540E6C0E8C0EAC0ECC0EEC00A010C080F02174018101E08BB
:400600001F8021482440268027202C082FA03108368038203940450247404F015418550257215C405E085F2169406A406B0186018D4090209201941096409B409F01A418BC
:40064000A508B401C2A1C480CAE0CC12CE0CD090D6F0E610160118011F01310136014030410649FF4AFF4BFF4DA04F0450185280580459045A045B045C015D015F016040FD
:4006800062C06440654066C068C06AC06CC06EC088018B0391029201960499049E01A104A402AA04B002B101B404B504B601B702BE50C030C106C5D5C610C702C81BC9FF03
:4006C000CAFFCBFFCDAFCE0FCF04D018D407D804D904DA04DB04DC11DD11DF01E040E2C0E440E540E6C0E8C0EAC0ECC0EEC0001009880B400C200D0810201208180119023F
:400700001A041D801E012102225027402902302031023780382041084508482049014A084E085010520859015AA47780934096409F41A418A880B404C002C26DC406CA0182
:40074000CC15CE04D042D224D60FEA149F20EA04B720EC10314033013420562259105B026308CC70D4C0D660D84052205C026310871089408E029C209D409E229F03A704C2
:40078000A910D420D680D840E210EE20528057088020822087019C209E209F01A620AB06B402D460E260E620EEA0A708AEA0EE5008400A048A04C202E6048890B040E00419
:4007C000E401EA010302920198109A80A080B281C002EC05920198109A80A080A302B7085D01660485018E04D680D880E2105E016410920198109A80A080AB02D601D801CB
:40080000508056809A80A080D406100311011A031B01003FBF000000A7E7180000E740000001830E000040003C448131BC00020000800400100000000822005118000000EC
:4008400004000000400798601F1820800000200000004110250103000600EC000CFFFFFF62A0F0410C00000000000210040404042222000100000000000040020010301091
:4008800000101012000000000000000000000000000000000701000000000000010103010000050100C1C100C1000000000C0C000C00000000CBCB00C0000000007F7F0037
:4008C0000000000000C0C000C0000000003737003700400000030300030000004000000000000000000000000000000000000000000000000000000000000000000000008A
:4009000000000000000000000000000000000000000000000000000000000000000000000000000000000000000000000000000000000000000000000000000000000000B7
:400940000000000000000000000000000000000000000000000000000000000000000000000000000000000000000000000000000000000000000000000000000000000077
:400980000000000000000000000000000000000000000000000000000000000000000000000000000000000000000000000000000000000000000000000000000000000037
:4009C00000000000000000000000000000000000000000000000000000000000000000000000000000000000000000000000000000000000000000000000000000000000F7
:0200000490006A
:0400000000004005B7
:0200000490105A
:04000000BC90ACAF55
:0200000490303A
:020000001D8B56
:0200000490402A
:4000000000000000000000000000000000000000000000000000000000000000000000000000000000000000000000000000000000000000000000000000000000000000C0
:400040000000000000000000000000000000000000000000000000000000000000000000000000000000000000000000000000000000000000000000000000000000000080
:400080000000000000000000000000000000000000000000000000000000000000000000000000000000000000000000000000000000000000000000000000000000000040
:4000C0000000000000000000000000000000000000000000000000000000000000000000000000000000000000000000000000000000000000000000000000000000000000
:0200000490501A
:0C00000000012E12306900012E214DF489
:00000001FF